:020000040800F2
:1000000000500020E59000082D9100082D91000877
:100010002D9100082D9100082D910008000000008E
:100020000000000000000000000000002D9100080A
:100030002D910008000000002D910008932F00086A
:100040002D9100082D9100082D9100082D91000898
:100050002D9100082D9100081D3100082331000862
:10006000293100082F310008353100082D91000892
:100070002D9100082D9100082D9100082D91000868
:100080002D9100082D9100082D9100082D91000858
:100090002D9100082D9100082D9100083B3100089A
:1000A0002D9100089D2C00082D910008B12C00080E
:1000B000B52C0008C92C0008DD2C00082D91000883
:1000C0002D9100082D9100082D9100082D91000818
:1000D0002D910008793E0008913E0008AD3E0008D1
:1000E000513100082D9100082D91000800000000FA
:1000F0000000000000000000000000000000000000
:0C01000000000000000000005FF808F1A3
:10010C0081F0004102E000BF83F0004330B54FEABC
:10011C0041044FEA430594EA050F08BF90EA020F29
:10012C001FBF54EA000C55EA020C7FEA645C7FEABC
:10013C00655C00F0E2804FEA5454D4EB5555B8BFDF
:10014C006D420CDD2C4480EA020281EA030382EA50
:10015C00000083EA010180EA020281EA0303362DE2
:10016C0088BF30BD11F0004F4FEA01314FF4801CB5
:10017C004CEA113102D0404261EB410113F0004FC7
:10018C004FEA03334CEA133302D0524263EB43037E
:10019C0094EA050F00F0A780A4F10104D5F1200E1C
:1001AC000DDB02FA0EFC22FA05F2801841F1000177
:1001BC0003FA0EF2801843FA05F359410EE0A5F14B
:1001CC0020050EF1200E012A03FA0EFC28BF4CF07C
:1001DC00020C43FA05F3C01851EBE37101F0004532
:1001EC0007D54FF0000EDCF1000C7EEB00006EEB3F
:1001FC000101B1F5801F1BD3B1F5001F0CD34908C9
:10020C005FEA30004FEA3C0C04F101044FEA44521F
:10021C0012F5800F80F09A80BCF1004F08BF5FEAA6
:10022C00500C50F1000041EB045141EA050130BD86
:10023C005FEA4C0C404141EB0101013C28BFB1F598
:10024C00801FE9D291F0000F04BF01460020B1FAE3
:10025C0081F308BF2033A3F10B03B3F120020CDAB6
:10026C000C3208DD02F1140CC2F10C0201FA0CF094
:10027C0021FA02F10CE002F11402D8BFC2F1200CF9
:10028C0001FA02F120FA0CFCDCBF41EA0C019040AF
:10029C00E41AA2BF01EB0451294330BD6FEA0404F8
:1002AC001F3C1CDA0C340EDC04F11404C4F12002E3
:1002BC0020FA04F001FA02F340EA030021FA04F3F5
:1002CC0045EA030130BDC4F10C04C4F1200220FA4C
:1002DC0002F001FA04F340EA0300294630BD21FA8A
:1002EC0004F0294630BD94F0000F83F4801306BF50
:1002FC0081F480110134013D4EE77FEA645C18BF44
:10030C007FEA655C29D094EA050F08BF90EA020FDA
:10031C0005D054EA000C04BF1946104630BD91EAD2
:10032C00030F1EBF0021002030BD5FEA545C05D1D5
:10033C004000494128BF41F0004130BD14F5800414
:10034C003CBF01F5801130BD01F0004545F0FE4188
:10035C0041F470014FF0000030BD7FEA645C1ABFBD
:10036C00194610467FEA655C1CBF0B46024650EAF4
:10037C00013406BF52EA033591EA030F41F4002120
:10038C0030BD00BF90F0000F04BF0021704730B5A6
:10039C004FF4806404F132044FF000054FF000017B
:1003AC0050E700BF90F0000F04BF0021704730B53C
:1003BC004FF4806404F1320410F0004548BF404211
:1003CC004FF000013EE700BF42004FEAE2014FEA66
:1003DC0031014FEA02701FBF12F07F4393F07F4F41
:1003EC0081F06051704732F07F4208BF704793F044
:1003FC007F4F04BF41F40021704730B54FF4607457
:10040C0001F0004521F000411CE700BF50EA010259
:10041C0008BF704730B54FF000050AE050EA010202
:10042C0008BF704730B511F0004502D5404261EB72
:10043C0041014FF4806404F132045FEA915C3FF4B3
:10044C00D8AE4FF003025FEADC0C18BF03325FEA50
:10045C00DC0C18BF033202EBDC02C2F1200300FA01
:10046C0003FC20FA02F001FA03FE40EA0E0021FA26
:10047C0002F11444BDE600BF70B54FF0FF0C4CF414
:10048C00E06C1CEA11541DBF1CEA135594EA0C0FC6
:10049C0095EA0C0F00F0DEF82C4481EA030621EA01
:1004AC004C5123EA4C5350EA013518BF52EA03353C
:1004BC0041F4801143F4801338D0A0FB02CE4FF0EE
:1004CC000005E1FB02E506F00042E0FB03E54FF01E
:1004DC000006E1FB03569CF0000F18BF4EF0010E16
:1004EC00A4F1FF04B6F5007F64F5407404D25FEA12
:1004FC004E0E6D4146EB060642EAC62141EA5551C5
:10050C004FEAC52040EA5E504FEACE2EB4F1FD0C06
:10051C0088BFBCF5E06F1ED8BEF1004F08BF5FEA84
:10052C00500E50F1000041EB045170BD06F0004636
:10053C0046EA010140EA020081EA0301B4EB5C04E3
:10054C00C2BFD4EB0C0541EA045170BD41F48011DB
:10055C004FF0000E013C00F3AB8014F1360FDEBF00
:10056C00002001F0004170BDC4F10004203C35DADC
:10057C000C341BDC04F11404C4F1200500FA05F35F
:10058C0020FA04F001FA05F240EA020001F0004200
:10059C0021F0004110EBD37021FA04F642EB060176
:1005AC005EEA430E08BF20EAD37070BDC4F10C04A0
:1005BC00C4F1200500FA04F320FA05F001FA04F264
:1005CC0040EA020001F0004110EBD37041F1000150
:1005DC005EEA430E08BF20EAD37070BDC4F120055B
:1005EC0000FA05F24EEA020E20FA04F301FA05F2C3
:1005FC0043EA020321FA04F001F0004121FA04F26B
:10060C0020EA020000EBD3705EEA430E08BF20EA3A
:10061C00D37070BD94F0000F0FD101F00046400074
:10062C0041EB010111F4801F08BF013CF7D041EAF6
:10063C00060195F0000F18BF704703F000465200FA
:10064C0043EB030313F4801F08BF013DF7D043EACB
:10065C000603704794EA0C0F0CEA135518BF95EA81
:10066C000C0F0CD050EA410618BF52EA4306D1D108
:10067C0081EA030101F000414FF0000070BD50EA27
:10068C00410606BF1046194652EA430619D094EAB1
:10069C000C0F02D150EA013613D195EA0C0F05D19B
:1006AC0052EA03361CBF104619460AD181EA0301EF
:1006BC0001F0004141F0FE4141F470014FF00000A7
:1006CC0070BD41F0FE4141F4780170BD70B54FF042
:1006DC00FF0C4CF4E06C1CEA11541DBF1CEA1355C2
:1006EC0094EA0C0F95EA0C0F00F0A7F8A4EB0504A4
:1006FC0081EA030E52EA03354FEA013100F088809B
:10070C004FEA03334FF0805545EA131343EA126363
:10071C004FEA022245EA111545EA10654FEA002618
:10072C000EF000419D4208BF964244F1FD0404F5D1
:10073C00407402D25B084FEA3202B61A65EB03052D
:10074C005B084FEA32024FF480104FF4002CB6EBEA
:10075C00020E75EB030E22BFB61A754640EA0C006A
:10076C005B084FEA3202B6EB020E75EB030E22BFAA
:10077C00B61A754640EA5C005B084FEA3202B6EBEB
:10078C00020E75EB030E22BFB61A754640EA9C00AA
:10079C005B084FEA3202B6EB020E75EB030E22BF7A
:1007AC00B61A754640EADC0055EA060E18D04FEA38
:1007BC00051545EA16754FEA06164FEAC30343EAD8
:1007CC0052734FEAC2025FEA1C1CC0D111F4801FA5
:1007DC000BD141EA00014FF000004FF0004CB6E79E
:1007EC0011F4801F04BF01430020B4F1FD0C88BF3D
:1007FC00BCF5E06F3FF6AFAEB5EB030C04BFB6EB48
:10080C00020C5FEA500C50F1000041EB045170BD3A
:10081C000EF0004E4EEA113114EB5C04C2BFD4EB67
:10082C000C0541EA045170BD41F480114FF0000EEB
:10083C00013C90E645EA060E8DE60CEA135594EA67
:10084C000C0F08BF95EA0C0F3FF43BAF94EA0C0F6A
:10085C000AD150EA01347FF434AF95EA0C0F7FF4DF
:10086C0025AF104619462CE795EA0C0F06D152EA33
:10087C0003353FF4FDAE1046194622E750EA410617
:10088C0018BF52EA43067FF4C5AE50EA41047FF428
:10089C000DAF52EA43057FF4EBAE12E74FEA41028B
:1008AC00B2F1E04324BFB3F5001CDCF1FE5C0DD9C2
:1008BC0001F0004C4FEAC0024CEA5070B2F1004F0C
:1008CC0040EB830008BF20F00100704711F0804F0F
:1008DC0021D113F13872BCBF01F00040704741F4D4
:1008EC0080114FEA5252C2F11802C2F1200C10FAD8
:1008FC000CF320FA02F018BF40F001004FEAC123BC
:10090C004FEAD32303FA0CFC40EA0C0023FA02F35F
:10091C004FEA4303CCE77FEA625307D150EA013335
:10092C001EBF4FF0FE4040F44000704701F0004005
:10093C0040F0FE4040F40000704700BF80F00040E3
:10094C0002E000BF81F0004142001FBF5FEA41039B
:10095C0092EA030F7FEA226C7FEA236C6AD04FEA9B
:10096C001262D2EB1363C1BFD218414048404140E0
:10097C00B8BF5B42192B88BF704710F0004F40F492
:10098C00000020F07F4018BF404211F0004F41F4AE
:10099C00000121F07F4118BF494292EA030F3FD07A
:1009AC00A2F1010241FA03FC10EB0C00C3F120038D
:1009BC0001FA03F100F0004302D5494260EB40001C
:1009CC00B0F5000F13D3B0F1807F06D340084FEA87
:1009DC00310102F10102FE2A51D2B1F1004F40EB7C
:1009EC00C25008BF20F0010040EA030070474900E4
:1009FC0040EB0000013A28BFB0F5000FEDD2B0FA81
:100A0C0080FCACF1080CB2EB0C0200FA0CF0AABFA3
:100A1C0000EBC25052421843BCBFD0401843704741
:100A2C0092F0000F81F4000106BF80F40000013247
:100A3C00013BB5E74FEA41037FEA226C18BF7FEA1E
:100A4C00236C21D092EA030F04D092F0000F08BF60
:100A5C000846704790EA010F1CBF0020704712F047
:100A6C007F4F04D1400028BF40F00040704712F186
:100A7C0000723CBF00F50000704700F0004343F0EB
:100A8C00FE4040F4000070477FEA226216BF084621
:100A9C007FEA23630146420206BF5FEA412390EAE4
:100AAC00010F40F4800070474FF0000304E000BFDA
:100ABC0010F0004348BF40425FEA000C08BF70478B
:100ACC0043F0964301464FF000001CE050EA01024F
:100ADC0008BF70474FF000030AE000BF50EA010264
:100AEC0008BF704711F0004302D5404261EB410151
:100AFC005FEA010C02BF84460146002043F0B64376
:100B0C0008BFA3F18053A3F50003BCFA8CF2083A9A
:100B1C00A3EBC25310DB01FA02FC634400FA02FCA3
:100B2C00C2F12002BCF1004F20FA02F243EB0200AA
:100B3C0008BF20F00100704702F1200201FA02FC0C
:100B4C00C2F1200250EA4C0021FA02F243EB0200FF
:100B5C0008BF20EADC7070474FF0FF0C1CEAD05243
:100B6C001EBF1CEAD15392EA0C0F93EA0C0F6FD004
:100B7C001A4480EA010C400218BF5FEA41211ED0E2
:100B8C004FF0006343EA501043EA5111A0FB0131CE
:100B9C000CF00040B1F5000F3EBF490041EAD371A3
:100BAC005B0040EA010062F17F02FD2A1DD8B3F11F
:100BBC00004F40EBC25008BF20F00100704790F08E
:100BCC00000F0CF0004C08BF49024CEA502040EAE0
:100BDC0051207F3AC2BFD2F1FF0340EAC2507047A6
:100BEC0040F400004FF00003013A5DDC12F1190FE4
:100BFC00DCBF00F000407047C2F10002410021FA56
:100C0C0002F1C2F1200200FA02FC5FEA310040F16D
:100C1C00000053EA4C0308BF20EADC70704792F0E6
:100C2C00000F00F0004C02BF400010F4000F013A1E
:100C3C00F9D040EA0C0093F0000F01F0004C02BF19
:100C4C00490011F4000F013BF9D041EA0C018FE788
:100C5C000CEAD15392EA0C0F18BF93EA0C0F0AD08E
:100C6C0030F0004C18BF31F0004CD8D180EA0100B4
:100C7C0000F00040704790F0000F17BF90F0004F4D
:100C8C00084691F0000F91F0004F14D092EA0C0F2F
:100C9C0001D142020FD193EA0C0F03D14B0218BFC2
:100CAC00084608D180EA010000F0004040F0FE4008
:100CBC0040F40000704740F0FE4040F440007047A4
:100CCC004FF0FF0C1CEAD0521EBF1CEAD15392EA23
:100CDC000C0F93EA0C0F69D0A2EB030280EA010C13
:100CEC0049024FEA402037D04FF0805343EA1111AC
:100CFC0043EA10130CF000408B4238BF5B0042F10A
:100D0C007D024FF4000C8B4224BF5B1A40EA0C00AE
:100D1C00B3EB510F24BFA3EB510340EA5C00B3EBE0
:100D2C00910F24BFA3EB910340EA9C00B3EBD10FCE
:100D3C0024BFA3EBD10340EADC001B0118BF5FEA20
:100D4C001C1CE0D1FD2A3FF650AF8B4240EBC25049
:100D5C0008BF20F0010070470CF0004C4CEA50200A
:100D6C007F32C2BFD2F1FF0340EAC250704740F459
:100D7C0000004FF00003013A37E792F0000F00F04B
:100D8C00004C02BF400010F4000F013AF9D040EAC9
:100D9C000C0093F0000F01F0004C02BF490011F45D
:100DAC00000F013BF9D041EA0C0195E70CEAD15355
:100DBC0092EA0C0F08D142027FF47DAF93EA0C0F3C
:100DCC007FF470AF084676E793EA0C0F04D14B0220
:100DDC003FF44CAF08466EE730F0004C18BF31F0D2
:100DEC00004CCAD130F000427FF45CAF31F00043CC
:100DFC007FF43CAF5FE700BF4FF0FF3C06E000BF65
:100E0C004FF0010C02E000BF4FF0010C4DF804CD87
:100E1C004FEA40024FEA41037FEA226C18BF7FEA97
:100E2C00236C11D001B052EA530C18BF90EA010F99
:100E3C0058BFB2EB030088BFC81738BF6FEAE17028
:100E4C0018BF40F0010070477FEA226C02D15FEAC4
:100E5C00402C05D17FEA236CE4D15FEA412CE1D030
:100E6C005DF8040B704700BF844608466146FFE7F7
:100E7C000FB5FFF7C9FF002848BF10F1000F0FBDD9
:100E8C004DF808EDFFF7F4FF0CBF012000205DF8D2
:100E9C0008FB00BF4DF808EDFFF7EAFF34BF012057
:100EAC0000205DF808FB00BF4DF808EDFFF7E0FFF0
:100EBC0094BF012000205DF808FB00BF4DF808ED41
:100ECC00FFF7D2FF94BF012000205DF808FB00BFA4
:100EDC004DF808EDFFF7C8FF34BF012000205DF886
:100EEC0008FB00BF4FEA40024FEA41037FEA226C45
:100EFC0002D15FEA402C08D17FEA236C02D15FEA71
:100F0C00412C02D14FF0000070474FF001007047A8
:100F1C004FEA4002B2F1FE4F0FD34FF09E03B3EBFA
:100F2C0012620DD94FEA002343F0004310F0004F3A
:100F3C0023FA02F018BF404270474FF00000704790
:100F4C0012F1610F01D1420205D110F0004008BF2F
:100F5C006FF0004070474FF00000704742000ED217
:100F6C00B2F1FE4F0BD34FF09E03B3EB126209D4D8
:100F7C004FEA002343F0004323FA02F070474FF08E
:100F8C000000704712F1610F01D1420202D14FF003
:100F9C00FF3070474FF00000704700BF034613F856
:100FAC00012B002AFBD1181A0138704710B5054CDB
:100FBC00237833B9044B13B10448AFF300800123F9
:100FCC00237010BDD001002000000000ECAA000826
:100FDC0008B5034B1BB103490348AFF3008008BDB0
:100FEC0000000000D4010020ECAA000810B594B059
:100FFC00142200210CA808F064FF142200210DEB30
:10100C00020008F05EFF1022002101A808F059FF31
:10101C0002244FF480330122CDE91143CDE90A2398
:10102C004FF4E0130AA80E92139300F04BFA00B1A0
:10103C00FEE70F23CDE905344FF480630790CDE92B
:10104C000830214605A800F0FFFB00B1FEE7122393
:10105C0001934FF40043CDE9033001A800F0CEFC1E
:10106C0000B1FEE714B010BD7047000038B50E4B50
:10107C0005461A784FF47A73B3FBF2F30B4A1068F7
:10108C00B0FBF3F000F09CF8044658B90F2D09D8CA
:10109C00024629464FF0FF3000F042F82046044B40
:1010AC001D6038BD0120FCE700000020240000205A
:1010BC0004000020074A08B51368032043F010030E
:1010CC00136000F01BF80020FFF7D0FFFFF7CCFFF8
:1010DC00002008BD00200240034A044B11681B7815
:1010EC000B441360704700BFEC010020000000208F
:1010FC00014B1868704700BFEC0100200749030240
:10110C00CA6803F4E06322F4E0621204120C134385
:10111C0043F0BF6343F40033CB60704700ED00E055
:10112C00154B30B5DC68C4F30224C4F10703251D4C
:10113C00042B28BF0423062D4FF0FF3594BF002449
:10114C00033C05FA03F321EA0303A54022EA050256
:10115C00A340002843EA0203ACBF00F16040074AF9
:10116C004FEA0313DBB2ABBF00F5614000F00F0098
:10117C0080F80033135430BD00ED00E014ED00E0B6
:10118C00002807DB01234109034A00F01F008340BC
:10119C0042F82130704700BF00E100E000280CDB72
:1011AC0001220649430900F01F008240203341F818
:1011BC002320BFF34F8FBFF36F8F704700E100E028
:1011CC000138B0F1807F0BD24FF0E023F021054ABB
:1011DC00586182F823100020072298611A61704729
:1011EC000120704700ED00E0002808DB01224309D4
:1011FC00034900F01F008240603341F82320704700
:10120C0000E100E0704708B5FFF7FCFF08BD704730
:10121C0010B5044650B1437903F0FF0213B90271C3
:10122C00FFF7F5FF01230020637110BD0120FCE7DF
:10123C0090F821200346022A06D004228263012062
:10124C00002283F8202070470268C06B116821F0DF
:10125C000E011160116821F00101116001211A6C5D
:10126C0001FA02F24260002083F82110E8E7000046
:10127C0008B590F82130022B03D00423836301209E
:10128C0008BD03681A6822F00E021A601A6822F070
:10129C0001021A60174A93421FD0143293421ED097
:1012AC00143293421DD0143293421DD01432934207
:1012BC001DD01432934214BF4FF080734FF480133F
:1012CC000D4A5360012380F82130002380F8203030
:1012DC00436B03B198470020D2E70123F0E71023BA
:1012EC00EEE74FF48073EBE74FF48053E8E74FF4ED
:1012FC008033E5E708000240000002402DE9F74F7B
:10130C0000242646DFF888C1624BDFF88CE1DFF859
:10131C008C810A6832FA06F502D103B0BDE8F08F71
:10132C000127B74002EA070537EA02027AD14A6878
:10133C00032A07D8013A022A00F28380DFE802F080
:10134C0092979D00122A00F095806DD8112A00F01A
:10135C008B80FF2D98BF81464FF00F0B88BF00F19B
:10136C0004094FEA8602D9F8007088BF203A0BFABC
:10137C0002FA27EA0A0704FA02F21743C9F80070C6
:10138C00D1F8049019F0805F4CD0DCF8182026F0CE
:10139C00030742F00102CCF81820DCF8182007F102
:1013AC00804702F00102019207F5803706F0030A2C
:1013BC00019A4FEA8A0ABA680BFA0AFB22EA0B0B6B
:1013CC00374A90425DD002F5806290425BD002F5C4
:1013DC008062904259D002F58062904214BF042280
:1013EC00032202FA0AF242EA0B02BA609A6819F472
:1013FC00801F14BF2A43AA439A60DA6819F4001FAD
:10140C0014BF2A43AA43DA605A6819F4003F14BF88
:10141C002A43AA435A601A6819F4803F14BF2A431E
:10142C00AA431A60013674E7DFF878904A4508D071
:10143C0010D8A9F580194A4503D0724501D0424510
:10144C0087D18A68DAB1012A4FF008040CBF076112
:10145C0047617EE7DFF850904A45F2D009F58039B4
:10146C004A45EDE7CC6874E7CC68043471E7CC6886
:10147C0008346EE7CC680C346BE7002469E704246D
:10148C0067E70022ADE70122ABE70222A9E700BF24
:10149C000010024000040140000021100000111057
:1014AC00000801400000221000003110044A08B569
:1014BC005169014202D0506101F014FE08BD00BF19
:1014CC00000401402DE9F341054638B30368DB07FE
:1014DC0010D42B689F075ED42B68190700F19580F8
:1014EC002B685A0700F1C180EB69002B40F02C816E
:1014FC00002029E0904C636803F00C03042B07D008
:10150C00636803F00C03082B0AD16368DE0307D56C
:10151C0023689C03DDD56B68002BDAD1012013E026
:10152C006B68B3F5803F12D1236843F4803323609A
:10153C00FFF7DEFD064623689803CAD4FFF7D8FDF3
:10154C00801B6428F7D9032002B0BDE8F0819BB959
:10155C00236823F480332360236823F480232360DF
:10156C00FFF7C6FD064623689903B2D5FFF7C0FD09
:10157C00801B6428F7D9E6E7B3F5A02F236803D1C5
:10158C0043F480232360CFE723F480332360236864
:10159C0023F48023CBE7684C636813F00C0F07D05F
:1015AC00636803F00C03082B10D16368DA030DD4C5
:1015BC0023689B0702D52B69012BAFD123686A697D
:1015CC0023F0F80343EAC203236085E72A695B4BE7
:1015DC006AB101221A60FFF78BFD064623689F074C
:1015EC00ECD4FFF785FD801B0228F7D9ABE71A6016
:1015FC00FFF77EFD0646236898077FF56DAFFFF772
:10160C0077FD801B0228F6D99DE7AA694A4E4B4B01
:10161C00E2B10122C3F88024FFF76AFD0446736A25
:10162C009B070DD54FF4FA52454B1B68B3FBF2F3F5
:10163C00019300BF019B5A1E0192002BF9D14FE779
:10164C00FFF756FD001B0228E9D97CE7C3F880247C
:10165C00FFF74EFD0446736A9F077FF541AFFFF716
:10166C0047FD001B0228F6D96DE7334CE369D8001F
:10167C0024D40127E36943F08053E361E36903F069
:10168C0080530093009B2F4E3368D90518D5EB6817
:10169C00012B26D1236A43F001032362FFF728FDB7
:1016AC0041F288380646236A9B073FD5002F3FF44A
:1016BC001BAFE36923F08053E36115E70027E2E7F2
:1016CC00336843F480733360FFF712FD8046336850
:1016DC00DA05DCD4FFF70CFDA0EB08006428F6D982
:1016EC0031E7ABB9236A41F2883823F00103236256
:1016FC00236A23F004032362FFF7FAFC0646236AED
:10170C009807D3D5FFF7F4FC801B4045F7D91AE7AF
:10171C00052B236A03D143F004032362BAE723F0B9
:10172C0001032362236A23F00403B6E7FFF7E0FC0E
:10173C00801B4045B7D906E700100240000042422A
:10174C0024000020007000402A4C626802F00C0259
:10175C00082A3ED00022022B274B1A662CD1FFF709
:10176C00C7FC06462368990120D42B6AB3F5803F49
:10177C0005D16268A96822F400320A436260696A82
:10178C0062680B4322F474121343012263601A4BF8
:10179C001A66FFF7ADFC054623689A013FF5A8AE23
:1017AC00FFF7A6FC401B0228F6D9CCE6FFF7A0FCFD
:1017BC00801B0228D6D9C6E6FFF79AFC054623689B
:1017CC009B017FF595AEFFF793FC401B0228F6D9E1
:1017DC00B9E6012B3FF4A2AE60682B6A00F48032AC
:1017EC009A427FF49BAE6B6A00F47010C01A18BF5B
:1017FC000120A9E600100240000042420D4A536845
:10180C0003F00C01082912D10B48C3F38341DB030D
:10181C00405C09D55368094AC3F340435043084A16
:10182C00D35CB0FBF3F07047064B5843704703484A
:10183C00704700BF0010024036B0000800127A005A
:10184C0034B0000800093D002DE9F0410D46044676
:10185C0010B90120BDE8F081444A136803F0070376
:10186C008B4228D321688E0730D4CA0743D43F4A11
:10187C00136803F00703AB4265D822683C4D12F0A5
:10188C00040F6CD1130706D56B68226923F46053DF
:10189C0043EAC2036B60FFF7B1FF6B68354AC3F3D1
:1018AC000313D35CD840344B1860344B1868FFF7E3
:1018BC00DDFB0020CEE7136823F007030B43136016
:1018CC00136803F007038B42C3D1CBE7284B11F00D
:1018DC00040F1EBF5A6842F4E0625A60080742BF08
:1018EC005A6842F460525A605A68A06822F0F002BA
:1018FC0002435A60B9E762681D4E012A33681AD157
:10190C0013F4003FA5D0736841F2883823F0030329
:10191C0013437360FFF7ECFB07467368626803F0D0
:10192C000C03B3EB820FA2D0FFF7E2FBC01B4045C8
:10193C00F3D903208EE7022A02D113F0007FE1E7EE
:10194C0013F0020FDEE7136823F007032B43136039
:10195C00136803F00703AB427FF47BAF8DE76B6832
:10196C00E16823F4E0630B436B608BE700200240DB
:10197C0000100240DCB0000824000020040000200D
:10198C00044B054A5B68C3F30223D35C034A10681B
:10199C00D840704700100240D4B00008240000204A
:1019AC00044B054A5B68C3F3C223D35C034A10683B
:1019BC00D840704700100240D4B00008240000202A
:1019CC000F2303600B4B5A6802F0030242605A6803
:1019DC0002F0F00282605A6802F4E062C2605B6856
:1019EC00DB0803F4E0630361034B1B6803F007039C
:1019FC000B607047001002400020024003682DE984
:101A0C00F3410546D80721D5364CE369D9002BD4D0
:101A1C000126E36943F08053E361E36903F08053EB
:101A2C000193019B304F3B68DA051FD5236A6A6826
:101A3C0013F440732ED1236A6A6823F44073134362
:101A4C0023621EB1E36923F08053E3612A68910796
:101A5C0006D52449A8684B6823F4404303434B60E4
:101A6C00D30636D4002012E00026DBE73B6843F4B3
:101A7C0080733B60FFF73CFB80463B68DB05D5D4AD
:101A8C00FFF736FBA0EB08006428F6D9032002B060
:101A9C00BDE8F08102F440729A42CCD00120134A86
:101AAC00236AC2F84004002023F44071DF07C2F817
:101ABC0040042162BFD5FFF71BFB41F28838074673
:101ACC00236A9807B7D4FFF713FBC01B4045F7D91F
:101ADC00DCE7044AE968536823F480030B43536042
:101AEC00C0E700BF001002400070004000004242FE
:101AFC00704710B50446002851D0436A002B4AD1D8
:101B0C004268B2F5827F00D0C3610023A36294F8CF
:101B1C00513003F0FF0223B9204684F85020FFF720
:101B2C00E7FF0223226884F851301368A06823F081
:101B3C0040031360636800F4044003F482730343AE
:101B4C00E068A16900F400600343206900F0020022
:101B5C000343606900F00100034301F40070034388
:101B6C00E069090C00F038000343206A01F004011D
:101B7C0000F080000343A06A00F40050034313609C
:101B8C005160D369002023F40063D36101236065A5
:101B9C0084F8513010BD0023C0E90433B5E70120AF
:101BAC00F8E7704710B5044680B10223026880F84C
:101BBC005130136823F040031360FFF7F2FF00204D
:101BCC00606584F8500084F8510010BD0120FCE7DA
:101BDC00022341F2111210B580F83D30036804461F
:101BEC00196A114208D140F24442196A114202BFEB
:101BFC001A6822F001021A60204601F0CCFE002087
:101C0C0084F8460084F83C0084F83E0084F83F00D9
:101C1C0084F8400084F8410084F8420084F84300C2
:101C2C0084F8440084F8450084F83D0010BD0000A1
:101C3C0090F83D30012B1CD102230F4A80F83D3027
:101C4C00036893420AD0B3F1804F07D0A2F59432C7
:101C5C00934203D002F58062934204D19A6802F059
:101C6C000702062A03D01A6842F001021A6000200B
:101C7C0070470120704700BF002C014041F2111247
:101C8C000368196A114208D140F24442196A1142A0
:101C9C0002BF1A6822F001021A60012380F83D305D
:101CAC00002070470368DA6822F00102DA6041F222
:101CBC001112196A114208D140F24442196A1142B8
:101CCC0002BF1A6822F001021A60012380F83D302D
:101CDC000020704790F83C200346012A4FF0020088
:101CEC0009D01A6883F83D0051610020012283F865
:101CFC003C0083F83D20704770477047036870B50F
:101D0C00DD681E690446B1070DD5AA070BD56FF027
:101D1C0002021A61012202779B699B0769D001F0CC
:101D2C007EF800232377710710D56A070ED56FF064
:101D3C000402236820461A61022222779B6913F45D
:101D4C00407F5CD001F06BF80023237733070FD56D
:101D5C0028070DD56FF00802236820461A6104226B
:101D6C002277DB69990750D001F059F800232377CB
:101D7C00F20610D5EB060ED56FF010022368204644
:101D8C001A6108222277DB6913F4407F43D001F0FB
:101D9C0046F800232377F00708D5E90706D56FF03E
:101DAC000102236820461A6101F016F8320608D5A4
:101DBC002B0606D56FF08002236820461A6100F0CE
:101DCC00AEF9700608D5690606D56FF04002236897
:101DDC0020461A61FFF791FFB20622D5AB0620D53B
:101DEC006FF0200223682046BDE870401A6100F0B5
:101DFC0095B901F012F82046FFF77EFF91E701F04C
:101E0C000CF82046FFF778FF9EE701F006F8204615
:101E1C00FFF772FFAAE701F000F82046FFF76CFF0E
:101E2C00B7E770BD174A036890420AD0B0F1804FF3
:101E3C0007D0A2F59432904203D002F58062904212
:101E4C0007D14A6823F070031343CA6823F4407324
:101E5C0013434A6923F08003134303608B68C36206
:101E6C000B688362074B984204BF0B690363012321
:101E7C0043610369DB0742BF036923F0010303617C
:101E8C00704700BF002C014010B5044630B390F8E9
:101E9C003D3003F0FF021BB980F83C2001F054FDEB
:101EAC000223206884F83D30211DFFF7BBFF01237E
:101EBC00002084F8463084F83E3084F83F3084F8B3
:101ECC00403084F8413084F8423084F8433084F850
:101EDC00443084F8453084F83D3010BD0120FCE7D7
:101EEC0010B50124036A01F01F018C4023EA04039E
:101EFC000362036A8A401A43026210BD08B529B90D
:101F0C0090F83E30012B1DD001202FE0042907D181
:101F1C0090F83F30012BF7D1022380F83F3014E0CA
:101F2C00082907D090F84130012BEDD1022380F81D
:101F3C0041300AE090F84030012BE5D1022380F8C3
:101F4C00403002E0022380F83E3000680122FFF7A7
:101F5C00C7FF0E4B98420AD1436C43F400434364D1
:101F6C00836803F00703062B0BD1002008BDB0F1EA
:101F7C00804FF5D0064B9842F2D003F5806398421F
:101F8C00EED0036843F001030360EEE7002C014040
:101F9C0000040040FFF7B2BF034610B559BB90F8E0
:101FAC003E4093F84220012CE0B2D2B257D1012A24
:101FBC0020D1022283F83E2083F8422018680122A7
:101FCC00FFF78EFF274B98420AD0B0F1804F07D015
:101FDC00A3F59433984203D003F58063984204D15F
:101FEC00836803F00703062B03D0036843F0010357
:101FFC000360002010BD04290FD190F83F4093F8E6
:10200C004320012CE0B2D2B229D1012AF2D1022212
:10201C0083F83F2083F84320D0E708290FD090F8AD
:10202C00414093F84520012CE0B2D2B217D1012ADD
:10203C00E0D1022283F8412083F84520BEE790F8D6
:10204C00404093F84420012CE0B2D2B207D1012ACF
:10205C00D0D1022283F8402083F84420AEE701203F
:10206C00C8E700BF002C014010B50424036A01F03E
:10207C000F018C4023EA04030362036A8A401A436B
:10208C00026210BD08B529B990F84230012B1DD061
:10209C0001203EE0042907D190F84330012BF7D101
:1020AC00022380F8433014E0082907D090F845301B
:1020BC00012BEDD1022380F845300AE090F8443032
:1020CC00012BE5D1022380F8443002E0022380F892
:1020DC00423000680422FFF7C7FF436C43F400430F
:1020EC0043640C4B98420AD0B0F1804F07D0A3F553
:1020FC009433984203D003F58063984204D18368EB
:10210C0003F00703062B03D0036843F001030360BD
:10211C00002008BD002C0140FFF7B4BF704770478A
:10212C00026802F10C0353E8003F23F490730C3265
:10213C0042E8003102680029F2D102F1140353E89D
:10214C00003F23F0010302F1140C4CE8003100298C
:10215C00F3D1036B012B0BD102F10C0353E8003FBD
:10216C0023F0100302F10C0C4CE800310029F3D1E0
:10217C00202380F8423000230363704710B50446D7
:10218C000368C1681A6922F440520A431A618268D2
:10219C000069D9680243606921F4B05121F00C0147
:1021AC0002430A43DA605A69A16922F440720A4375
:1021BC005A610E4A934215D1FFF7F2FB19234343A0
:1021CC00626820689200B3FBF2F36422B3FBF2F175
:1021DC0002FB11331B013233B3FBF2F303EB01139C
:1021EC00836010BDFFF7CCFBE8E700BF003801406F
:1021FC00F7B505460C4617461E462A68136834EA9E
:10220C00030301D1002021E0701CF7D0FEF770FF12
:10221C00C01B86421CD3DEB12B68DA685107ECD5A3
:10222C00802CEAD0402CE8D01A681207E5D500249F
:10223C0001941A68284601925B680193019BFFF791
:10224C006FFF082301206B6485F8404003B0F0BD9C
:10225C000320FBE7704710B5044648B390F84130B3
:10226C0003F0FF021BB980F84020FFF7F3FF242393
:10227C00226884F84130D368204623F40053D3609D
:10228C00FFF77CFF236800201A6922F490421A6140
:10229C005A6922F02A025A61DA6842F40052DA6072
:1022AC002023606484F8413084F84230606310BDB0
:1022BC000120FCE710B5044668B390F8413003F0F8
:1022CC00FF021BB980F84020FFF7C4FF24232268CB
:1022DC0084F84130D368204623F40053D360FFF7D1
:1022EC004DFF236800201A6922F490421A615A6942
:1022FC0022F022025A615A6942F008025A61DA68E5
:10230C0042F40052DA602023606484F8413084F88F
:10231C004230606310BD0120FCE72DE9F84398467C
:10232C0090F841300446202B0E4617463FD1002929
:10233C003FD0002A3DD021230025456480F8413050
:10234C00FEF7D6FEA3688146B3F5805FA784E784C9
:10235C0003D123690BB935461E46E38C9BB253B9A6
:10236C0043464A4640212046FFF742FF202350B9FE
:10237C0084F841300AE043464A4680212046FFF764
:10238C0037FF28B12023032084F84130BDE8F883BF
:10239C0022684EB935F8023BC3F308035360E18C55
:1023AC00013989B2E184D8E716F8013BF6E702203F
:1023BC00ECE70120EAE790F84130202B10D189B1ED
:1023CC0082B1C284828400232122016201684364A9
:1023DC0080F84120CA68184642F08002CA607047F3
:1023EC00022070470120704708B50023406AC3855E
:1023FC00C38401F0FDFC08BD704790F8423007B56E
:10240C00222B42D181680268B1F5805F836A3FD18B
:10241C00016900293FD15268C2F3080223F8022B4C
:10242C008362C38D013B9BB2C385002B2DD1026807
:10243C00D16821F02001D160D16821F48071D16084
:10244C00516921F001015161202280F8422043633F
:10245C00026B012A026828D1036302F10C0353E8D2
:10246C00003F23F0100302F10C0C4CE80031002962
:10247C00F3D11368DB0605D50191136801935368FA
:10248C000193019B818DFFF7B7FF03B05DF804FB4F
:10249C0039B9016929B95268D2B21A70836A013309
:1024AC00BEE7526802F07F02F7E701F09BFCECE715
:1024BC00036873B51A6804461607D9685D690AD1B2
:1024CC00960640F18B808D0640F1888002B0BDE805
:1024DC007040FFF792BF15F001054BD012F0010FC1
:1024EC0002F0040363D11BB1636C43F00203636419
:1024FC00930749D5636C12F0080F43F0040363642F
:10250C0003D0636C43F008036364636C002B5FD0EF
:10251C00920604D58B0602D52046FFF76EFF26687F
:10252C0020467369626C03F0400302F0080253EA20
:10253C0002054FD0FFF7F4FD73695E0645D522689E
:10254C0002F1140353E8003F23F04003143242E835
:10255C0000310029F3D1E06B002836D0894B43635E
:10256C00FEF786FE002833D0E06B436B02B0BDE86B
:10257C007040184711F4907F30D012F0010F02F028
:10258C00040307D190070DD41007BED501F020032A
:10259C002B43B5E7CE050FD4002BF3D19607F3D51B
:1025AC00002DA7D11507B0D511F0200FA8E7C8054D
:1025BC0002D4002B98D1F1E7636C560743F001036A
:1025CC006364EBD5002DDDD08EE7204601F010FCC6
:1025DC0002B070BD01F00CFC6564F9E7206B0128BA
:1025EC0040F09480D50640F19180C80640F18E8071
:1025FC00002201921A6801925A680192019A5A6952
:10260C0052064DD5E16B0A68526892B2002ADFD0AF
:10261C00A08D9042DCD9E2858A69202A36D003F15C
:10262C000C0252E8002F22F4807203F10C0040E8F7
:10263C0000210029F3D103F1140252E8002F22F0FB
:10264C00010203F1140040E800210029F3D103F149
:10265C00140252E8002F22F0400203F1140040E86B
:10266C0000210029F3D1202284F84220216303F1B8
:10267C000C0252E8002F22F0100203F10C0040E88B
:10268C0000210029F3D1E06BFEF7D2FD0223636336
:10269C00E38DA18DC91A89B22046FFF7ADFE97E7ED
:1026AC00E28DE08DA18D80B292B2002890D0891A73
:1026BC0089B200298CD003F10C0252E8002F22F4CD
:1026CC00907203F10C0545E800200028F3D103F1CA
:1026DC00140252E8002F22F0010203F1140545E820
:1026EC0000200028F3D1202284F84220206303F13B
:1026FC000C0252E8002F22F0100203F10C0545E801
:10270C0000200028F3D102236363C5E7160628D501
:10271C000D0626D594F84120212A7FF459AFA168E3
:10272C00226AB1F5805F17D12169A9B932F8021B71
:10273C00C1F3080159602262E28C013A92B2E28440
:10274C00002A7FF445AFDA6822F08002DA60DA689A
:10275C0042F04002DA603BE7511C216212785A6069
:10276C00EAE750067FF534AF4A067FF531AFDA68F9
:10277C00204622F04002DA60202384F8413001F038
:10278C0034FB25E7F523000890F84030012B11D0DD
:10279C002423026880F84130D36823F00C0343F003
:1027AC000803D360202380F84130002380F84030A8
:1027BC00184670470220704790F84030012B11D01A
:1027CC002423026880F84130D36823F00C0343F0D3
:1027DC000403D360202380F84130002380F840307C
:1027EC00184670470220704790F8412090F842003C
:1027FC00104370470023C2854364222382850269FB
:10280C0080F84230816203681AB1DA6842F480724F
:10281C00DA605A69002042F001025A61DA6842F02B
:10282C002002DA60704770B490F84260202E06D116
:10283C0041B13AB10024046370BCFFF7DBBF022046
:10284C0070BC70470120FBE7836810B504462BB1C0
:10285C000322014698470023C4E9023310BD836864
:10286C0010B5044613B1032201469847204610BD0B
:10287C0010B5044650F8103FDA6822F00102DA6015
:10288C00DA6822F00202DA60DA6822F00402DA6016
:10289C00DA6822F00802DA60DA6822F01002DA60F4
:1028AC00FFF7ECF92269136823F00103136001238D
:1028BC0084F84E3084F84F3084F8503084F851301E
:1028CC0084F8523084F8533084F8543084F85530FE
:1028DC0010BD4B1E032B00D9FEE78900081F704763
:1028EC000139435C13F0100004D0022916D80C4AAD
:1028FC0032F81100DB0712D503290FD8DFE801F0FD
:10290C000205080B40F00100704740F010007047C2
:10291C0040F48070704740F480507047FEE7704779
:10292C004EB000080139032900D9FEE7014B585C71
:10293C00704700BF4AB000080139032900D9FEE7EF
:10294C00014B585C704700BF46B000082DE9F041C0
:10295C000E460446FFF7BDFF06F106080546314654
:10296C00204604EB0818FFF7DDFFD8F808302BB130
:10297C00C24323691A61DA680243DA60771E04EBFA
:10298C0047039B880B2B49D8DFE803F05118181824
:10299C00060618184A4A4A2AE35DDE0604D529467B
:1029AC0004F11000FFF7B8FBE35DD80736D52946D4
:1029BC0004F11000BDE8F041FFF7ECBAE35DD90675
:1029CC0004D5294604F11000FFF75CFBE35DDA0740
:1029DC0024D5294604F11000BDE8F041FFF78EBA6A
:1029EC00294604F11000FFF7D7FA31462046FFF7CD
:1029FC00A3FF014606462046FFF772FF25692B6AA6
:102A0C001843D8F80830286243B131462046FFF706
:102A1C0089FFC3432B61EB681843E860BDE8F08184
:102A2C00294604F11000BDE8F041FFF7B5BA23695F
:102A3C001B68DB07F2D404F11000BDE8F041FFF78E
:102A4C00F7B870B5012504462946861C36F8023FB6
:102A5C0023B129462046FFF779FF00210135052DCA
:102A6C00F4D1A36E3BB16FF0010223691A61DA68ED
:102A7C0042F00102DA6049B123691B68DB0705D417
:102A8C0004F11000BDE87040FFF7D2B870BD012111
:102A9C001030FFF71FB90369186800F00100704788
:102AAC0010B502460C46FFF7F6FF80B9CB68DB0782
:102ABC000ED5CB68104623F00103CB60FFF7E7FF80
:102ACC006FF001032361E36843F00103E36010BD81
:102ADC001046BDE81040FFF7DABF00000B4B9842E0
:102AEC000BD0B0F1804F0AD0A3F59433984208D0A4
:102AFC0003F58063984206D0FEE700207047012062
:102B0C007047022070470320704700BF002C014023
:102B1C00024670B5044652F8100FFFF7DFFF05466A
:102B2C00104600F0A3FE0023084A04F1600642F8A8
:102B3C002530E36004F1B005B54204D0103D2846C1
:102B4C00FFF78DFEF8E7204670BD00BFF0010020B6
:102B5C00F8B504460846FFF7C1FF236903B1FEE749
:102B6C001B4D04F10C0245F820200E2204F1100636
:102B7C003046C4E90C33C4E90E33C4E91033C4E95C
:102B8C001623216184F82C30A36484F84C3084F82B
:102B9C004D30E46000F026FE04F1600504F1B0074E
:102BAC0028461035FFF750FEBD42F9D100234FF6F1
:102BBC00FF72C4E90033C4E90632C4E90833A360E8
:102BCC00636180233046A362BDE8F840FFF75CB92F
:102BDC00F001002010B586B014220446002101A893
:102BEC0007F06FF90023694601A80093FEF7E8FE91
:102BFC00206900F0E1FE012802D002280FD0FEE788
:102C0C00049CFEF7BDFEB4F5C06F05D00BD824F4C0
:102C1C008074B4F5806F00D1400006B010BD059CE7
:102C2C00FEF7BEFEEFE7B4F5E06FF4E7012A38B526
:102C3C0005460C460BD0022A16D004B1013C29697A
:102C4C002846CC62EC61BDE83840FFF729BFFFF79E
:102C5C00C1FF084BB0FBF3F044432A69230C936289
:102C6C000133B4FBF3F4E8E7FFF7B4FFB0FBF4F483
:102C7C00F3E700BF40420F0010B500F110042046EE
:102C8C00FFF710F82046BDE81040FEF7A1BF00008A
:102C9C00034B186810B10430FFF730B8704700BF11
:102CAC00F0010020FFF7F4BF034B586810B104305B
:102CBC00FFF724B8704700BFF0010020034B986861
:102CCC0010B10430FFF71AB8704700BFF0010020B4
:102CDC00034BD86810B10430FFF710B8704700BF31
:102CEC00F00100200022C0E90022C0E90222704756
:102CFC00F8B504460E4600F1600500F1B007284611
:102D0C001035FFF7EFFFBD42F9D1002320463146C5
:102D1C002361FFF71DFF2046F8BD38B50023C0E93D
:102D2C000033C0E902338B6804460D462BB10222F6
:102D3C009847EB68E360AB68A360204638BD30B5BC
:102D4C0087B002AD04462846FFF7E7FF95E803007D
:102D5C006B4683E8030094E8030085E8030093E8DE
:102D6C000300049BA268A360059B0492E26884E8BC
:102D7C000300E36028460592FFF771FD07B030BDF4
:102D8C0038B50446A36E0D4660301BB1BDE8384023
:102D9C00FFF7D5BFFFF7D3FFAB683BB16FF0010274
:102DAC0023691A61DA6842F00102DA6038BD826880
:102DBC0010B50AB906F00EFBC368BDE81040184701
:102DCC0008B500B9FEE700F00BFD0068836E13B187
:102DDC006030FFF7ECFF08BDFFF7F2BF10B500B98C
:102DEC00FEE7037F013B072B10D8DFE803F0041448
:102DFC000F100F0F0F12012400F0F2FC00680634C4
:102E0C0000EB041083680BB1FFF7D1FF10BD032456
:102E1C00F2E70424F0E70224EEE7FFF7DFBFFFF749
:102E2C00DDBF06F01FBE06F01DBE06F023BE06F089
:102E3C0021BE000086B0042841D8DFE800F0031062
:102E4C001C2834001F4B20489A6942F004029A61F6
:102E5C009B6903F004030193019B06B07047194B67
:102E6C001A489A6942F008029A619B6903F00803B8
:102E7C000293029BF1E7134B15489A6942F010023A
:102E8C009A619B6903F010030393039BE5E70D4BD9
:102E9C0010489A6942F020029A619B6903F0200362
:102EAC000493049BD9E7074B0B489A6942F0400204
:102EBC009A619B6903F040030593059BCDE70020C5
:102ECC00CBE700BF0010024000080140000C01409D
:102EDC00001001400014014000180140F8B51449DD
:102EEC00074600F035FCFFF7F9FD124E044656F884
:102EFC00203073B9B020FFF794FF0D4905463846D2
:102F0C0000F026FC01462846FFF7F2FE56F8243066
:102F1C001D6056F824301C6844B12046FFF7F8FDBC
:102F2C002046BDE8F840B021FFF781BFF8BD00BFD7
:102F3C007CAD0008F001002037B54FF0E025FEF71E
:102F4C00D7F8AB6904460093FEF7D2F8AB6984421C
:102F5C00019369694FF47A7301F1010108D0019A68
:102F6C008A1A5A43B2FBF1F203FB002003B030BDC6
:102F7C00009A8A1A5A43B2FBF1F203FB0420F5E7DC
:102F8C00FEF7B6B8704708B5FEF7A6F8FEF73BF9A2
:102F9C00FFF7F8FF08BD70470F4B84B0DA6942F0B9
:102FAC008052DA61DA6902F080520192019A9A69D0
:102FBC0042F001029A619A6902F001020292029AAD
:102FCC005A6942F040025A615B6903F04003039373
:102FDC00039B04B0704700BF001002400C4BD3F8A9
:102FEC00FC20D2015EBFD3F8FC2042F08072C3F803
:102FFC00FC200022074B5A601A6842F001021A604A
:10300C0000BF00BF00BF5868B0FA80F0400970479D
:10301C0000ED00E0001000E008B5FFF7BDFFFFF782
:10302C00DDFFFEF747F8FFF7B6FFFDF7DFFFBDE862
:10303C0008400148FEF7ECB81C000020012A02D120
:10304C00016000207047022A05D0032AF9D0002A1B
:10305C00F7D10260F5E70B680360F2E703681847E5
:10306C000023C0E90033C0E90233704770B5002477
:10307C00012904F101032AD11421E4B26143164D54
:10308C006E18F3683BB10431294403220846984773
:10309C000023C6E90333142300226343E8560E4B86
:1030AC0093F90010814201D1D96899B90132102AE3
:1030BC0003F11403F4D1094A0949136851F8241097
:1030CC00BDE8704023EA01031360FEF767B81C46A5
:1030DC004908CDE770BD00BF00020020000401408C
:1030EC0054B000080023012803F101020AD1142274
:1030FC00DBB25343054A181D1044816829B11A44A8
:10310C001369184713464008EDE77047000200208A
:10311C000120FEF7CBB90220FEF7C8B90420FEF758
:10312C00C5B90820FEF7C2B91020FEF7BFB938B5F3
:10313C0005242025A8B2FEF7B9F9013C4FEA450554
:10314C00F8D138BD38B506244FF48065A8B2FEF727
:10315C00ADF9013C4FEA4505F8D138BD2DE9F041F8
:10316C0001260D461746002400F00F0806FA08F653
:10317C008AB0B3B2012B04F1010252D1C0F3031097
:10318C00FFF758FEC8B1284B012253F82830CDE97F
:10319C0002671B0A93FAA3F1B1FA81F193FAA3F334
:1031AC00B3FA83F3C6688A40324022FA03F30493DD
:1031BC00032302A90593FEF7A1F8142306AE2946B2
:1031CC003046E4B25C43FFF7A8FD96E803006A467C
:1031DC00DFF8588082E8030008EB0403043393E81B
:1031EC00030086E8030092E8030083E80300271D30
:1031FC00089B4744BA68BB60099B0892FA68304642
:10320C00FB600992FFF72BFB18F904400022062102
:10321C002046FDF785FF2046FDF7B2FF0AB0BDE85A
:10322C00F08114465B08A5E794B00008000200206A
:10323C00344A08B51046062300F8043BFFF710FF8C
:10324C00072302F118001375FFF70AFF082302F198
:10325C002C0082F82830FFF703FF092302F140000D
:10326C0082F83C30FFF7FCFE0A23172102F15400D0
:10327C0082F85030FFF7F4FE02F1680082F8641017
:10328C00FFF7EEFE02F17C0082F87810FFF7E8FE03
:10329C0002F1900082F88C10FFF7E2FE02F1A4001C
:1032AC0082F8A010FFF7DCFE82F8B410282102F19E
:1032BC00B800FFF7D5FE02F1CC0082F8C810FFF77A
:1032CC00CFFE02F1E00082F8DC10FFF7C9FE02F13C
:1032DC00F40082F8F010FFF7C3FE02F5847082F858
:1032EC000411FFF7BDFE02F58E7082F81811FFF77E
:1032FC00B7FEBDE8084002F5987082F82C11FFF774
:10330C00AFBE00BF0002002038B5054CA4F5A07577
:10331C00143C201DFFF7A3FAAC42F9D138BD00BF15
:10332C00400300207B4B82B09A69013842F00102C5
:10333C009A619B6903F001030193019B23282CD80C
:10334C00DFE810F024002D0034003B004000470063
:10335C004C00530058005F0068006D0074007D0045
:10336C008200890092009B00A000A700B000B5006D
:10337C00BC002B002B002B00C100C8002B002B0025
:10338C002B002B00CD00D200D900E000624A53681C
:10339C0043F0E06343F00103536002B070475E4AB0
:1033AC00536823F0010343F0E063F5E75A4A53688E
:1033BC0043F0E06343F00203EEE7574A536823F00F
:1033CC000203F0E7544A536843F0E06343F004030C
:1033DC00E2E7514A536823F00403E4E74E4A53688A
:1033EC0043F0E06343F00803D6E74B4A536823F0FD
:1033FC000803D8E7484A536843F0E06343F03003CE
:10340C00CAE7454A536823F0300343F0E06343F0C6
:10341C001003C1E7404A536823F03003C3E73E4A28
:10342C00536843F0E06343F0C003B5E73A4A53688E
:10343C0023F0C00343F0E06343F04003ACE7364AAB
:10344C00536823F0C003AEE7334A536843F0E0639C
:10345C0043F44073A0E7304A536823F4407343F0BD
:10346C00E06343F4007397E72B4A536823F44073EB
:10347C0043F0E06343F480738EE7274A536823F4E8
:10348C00407390E7244A536843F0E06343F440638D
:10349C0082E7214A536823F4406343F0E06343F42A
:1034AC00006379E71C4A536823F440637BE71A4AAC
:1034BC00536843F0E06343F480536DE7164A536856
:1034CC0023F480536FE7144A536843F0E06343F4EA
:1034DC00004361E7104A536823F4004363E70E4A44
:1034EC00536823F0E06357E70B4A536823F0E0631B
:1034FC0043F0807350E7084A536823F0E06343F0CD
:10350C00007349E7044A536823F0E06343F0806397
:10351C0042E700BF001002400000014091FAA1F305
:10352C00B3FA83F370B50D0E0F2691FAA1F1B1FA2F
:10353C0081F144599B0006FA03F3890024EA030441
:10354C008A402243425170BD91FAA1F3B3FA83F33E
:10355C0070B50D0E042691FAA1F1B1FA81F144591E
:10356C009B0006FA03F3890024EA03048A402243F1
:10357C00425170BD431C04D00C3151F80C3C5A1C08
:10358C0001D100207047834201F10C01F5D10120DB
:10359C0070470000431C2DE9F34107460E4600D14D
:1035AC00FEE75C4B00F00F02C0F3031001F00708BC
:1035BC0053F82250FFF73EFCB8F1010F044615D129
:1035CC0095FAA5F3B3FA83F30321280E22589B0036
:1035DC0001FA03F322EA030295FAA5F3B3FA83F393
:1035EC009B00994011432150012247E0C6F306206D
:1035FC00B8F1030F0AD801A353F828F01B360008C2
:10360C00F53500087F360008A1360008FEE7FFF705
:10361C0089FE082229462046FFF780FF95FAA5F27D
:10362C002B0EB2FA82F2E1580F2392009340C6F3AC
:10363C0001160B4095FAA5F272BB012E45D0022E55
:10364C0057D0354B9A6942F001029A619B6903F09D
:10365C0001030193019BA7F10D03012B4DD82F4AB8
:10366C00536823F0E06343F08063536002B0BDE81D
:10367C00F0817F2801D0FFF755FE0922294620460C
:10368C00FFF74CFF16F0080218BF04222946FFF77B
:10369C005BFFC3E70022BDE7B2FA82F2012E4FEACC
:1036AC00820223FA02F309D0022E1BD0082BC8D1B8
:1036BC00042229462046FFF731FFC2E7042B04D130
:1036CC00082229462046FFF729FF01232A0A92FAED
:1036DC00A2F2B2FA82F2E168934021EA15210B437F
:1036EC00E360AEE7042B04D1082229462046FFF7FD
:1036FC0015FFE36823EA1523F2E70F2F02D0133FDF
:10370C00012FB3D8054A536823F0E06343F00073EC
:10371C00ABE700BF94B0000800100240000001406D
:10372C00431C06D17047834202D18968FFF732BF30
:10373C000C310B685A1CF6D1FEE70B685A1C01D1F0
:10374C0000207047834201D1486870470C31F4E780
:10375C00431C01D0FFF7F1BF002070474B6813B931
:10376C004FF0FF307047834201D1086870470C312D
:10377C00F4E708B1FFF7F2BF4FF0FF307047034694
:10378C008B42084604D01BB100290CBF1846002000
:10379C00704700000F4B1A6842F001021A6059681A
:1037AC000D4A0A405A601A6822F0847222F4803260
:1037BC001A601A6822F480221A605A6822F4FE02F7
:1037CC005A604FF41F029A604FF00062034B9A60EC
:1037DC00704700BF001002400000FFF800ED00E051
:1037EC000438704703681D4A84B093420BD11C4BBC
:1037FC009A6942F400629A619B6903F40063009336
:10380C00009B04B07047B3F1804F0BD103F5043328
:10381C00DA6942F00102DA61DB6903F0010301931A
:10382C00019BEEE70F4A93420AD10D4BDA6942F045
:10383C000202DA61DB6903F002030293029BE0E708
:10384C00094A9342DDD1064BDA6942F00402DA618F
:10385C00DB6903F004030393039BD2E7002C0140C4
:10386C000010024000040040000800400368124AA7
:10387C00934206D102F56442936923F40063936189
:10388C007047B3F1804F05D10C4AD36923F0010383
:10389C00D36170470A4A934205D102F50332D369CA
:1038AC0023F00203F4E7074A9342F2D102F5023205
:1038BC00D36923F00403EBE7002C01400010024015
:1038CC000004004000080040431C10D00C4B9842F0
:1038DC0010D007D8B0F1804F0ED0A3F5806398427A
:1038EC000CD0FEE7074B9842FBD1192070476FF0C4
:1038FC000D0070471E2070471C2070471D2070471C
:10390C0000080040002C0140431C10D00C4B984286
:10391C0010D007D8B0F1804F0ED0A3F58063984239
:10392C000CD0FEE7074B9842FBD11B2070476FF081
:10393C000D0070471E2070471C2070471D207047DB
:10394C0000080040002C014038B50446FFF74AFF40
:10395C000068FFF7B9FFD4E91212FDF7E1FB20680C
:10396C00FFF7B2FFFDF70CFC22681046FFF7CCFF07
:10397C0005461046FFF7A8FF85420BD0D4E912127A
:10398C002846FDF7CDFB2068FFF7BEFFBDE83840A9
:10399C00FDF7F6BB38BD10B50446FFF767FF0068AE
:1039AC00FFF792FFFDF7FAFB2068FFF7ADFFBDE8CC
:1039BC001040FDF7F3BB0000431C0CD0094B9842A0
:1039CC000BD007D820F48063B3F1804F07D0064B9F
:1039DC00984204D0FEE70020704702207047012077
:1039EC00704700BF002C0140000800402DE9F04F4B
:1039FC008B4692469946044685B018B9002005B00E
:103A0C00BDE8F08F6249406DFFF7A2FE61490646A2
:103A1C00A06DFFF79DFE60490746E06DFFF798FE2D
:103A2C005E490546206EFFF793FE8046002EE5D0DA
:103A3C00A36D013301D0002FE0D0E36D013301D031
:103A4C00002DDBD0236E013302D0B8F1000FD5D09E
:103A5C0039463046FFF793FE0146206010B9FFF758
:103A6C008EFE206029462068FFF789FE41462060C3
:103A7C00FFF785FE20600028C0D0494B984252D1F8
:103A8C0003F55843DA6842F48042DA60DA6822F4CB
:103A9C008042DA609A6942F480429A619B69002202
:103AAC0003F480430193019B25233949606D84F80D
:103ABC00652084F86430FFF733FE1FB13549A06DE3
:103ACC00FFF72EFE2DB13449E06DFFF729FE4FF4C0
:103ADC008075B8F1000F05D03049206E45F40075A3
:103AEC00FFF71EFE94F865202E4B261D43F822602E
:103AFC0023680022C4E9013B0E9B94F96400C4E9DD
:103B0C0004390C230121C4E90635C4F80CA0226247
:103B1C00FDF706FB3046002F37D1FEF7CBFBB0FA92
:103B2C0080F040096BE7204B984215D103F5E63342
:103B3C001A6942F400321A611A6922F400321A61CD
:103B4C00DA6942F40032DA61DB69012203F40033F2
:103B5C000293029B2623A8E7144B98427FF44EAFA6
:103B6C00134E0222336943F480233361336923F407
:103B7C0080233361F36943F48023F361F36903F425
:103B8C0080230393039B27238FE7FEF764FBC6E791
:103B9C0040AD000804AD0008C8AC00088CAC0008AF
:103BAC000038014040030020004400400048004021
:103BBC00001002401FB50A4B0A49DC6A2046FFF789
:103BCC00C7FD002350B108481A4644654FF41651FE
:103BDC00CDE90233CDE90033FFF708FF04B010BD87
:103BEC00A8AF000840AD00082800002008B5074B1E
:103BFC0090F8652053F82200FEF7F6FD00F0220045
:103C0C00A0F122035842584108BD00BF40030020D8
:103C1C0008B5074B90F8652053F82200FEF7E4FD39
:103C2C0000F02100A0F121035842584108BD00BF0B
:103C3C00400300202DE9F04706460C46FDF758FAE4
:103C4C00284D074695F86530022B13D895F865205A
:103C5C00254B53F82250A5F104084046FFF7D8FF36
:103C6C00C0BB4FF47A7331462846A2B2FEF755FB1F
:103C7C0040B908E01D4B1E49D3F82C804046FFF795
:103C8C0067FD08BB00242046BDE8F0875AF82330B6
:103C9C0043B995F865300133DBB2022B85F86530FA
:103CAC00F4D90CE049464046FFF752FD95F86520E3
:103CBC005AF822301B688342EBD1022AC6D9FFF78F
:103CCC0079FF0028C2D1DDE70023DFF81CA0DFF864
:103CDC002090E2E7FDF70CFAC01BB0F57A7FBCD35D
:103CEC00D0E700BF2800002040030020A8AF000848
:103CFC0040AD000870B50E46054610B94FF0FF30C8
:103D0C0070BDFFF773FF04460028F7D1294611F860
:103D1C00663F0122337095F86500034B53F8200081
:103D2C00FEF781FD2046EBE74003002038B50D4639
:103D3C000446B8B1FFF75AFFA0B994F96400E564E2
:103D4C00FDF72CFA94F86500074B04F1660153F863
:103D5C0020000122FEF767FD94F96400BDE83840AD
:103D6C00FDF70EBA38BD00BF4003002038B515462C
:103D7C000446B8B1016590F96400FDF70FFAB4F888
:103D8C007630E16E9BB294F865001944064BAAB2EA
:103D9C0053F82000FEF70FFB94F96400BDE838409F
:103DAC00FDF7EEB938BD00BF4003002048B1836D6C
:103DBC00013306D190F86520024B53F82200FEF730
:103DCC00E3BC70474003002048B1836D013306D13A
:103DDC0090F86520024B53F82200FEF7EDBC7047BB
:103DEC0040030020836C04381847C36C0438184710
:103DFC0030B5044650F8043985B01D6815F001053E
:103E0C0012D0002200921A6800925B680093009B0B
:103E1C00FFF7ECFE40BB0122204604F1620105B025
:103E2C00BDE83040FEF7FFBC196811F0020106D066
:103E3C0001951A6801925B680193019BE8E71A6887
:103E4C0012F0040206D002911A6802925B68029387
:103E5C00029BDDE719680907DAD503921A68039209
:103E6C005B680393039BD3E705B030BD08B52520F1
:103E7C00FDF7BAF9024B1868BDE80840FEF718BB0D
:103E8C0040030020262008B5FDF7AEF9034B586817
:103E9C0018B1BDE80840FEF70BBB08BD400300207D
:103EAC00272008B5FDF7A0F9034B986818B1BDE8B9
:103EBC000840FEF7FDBA08BD4003002003460A493E
:103ECC0010B508680344EFF30882934205D90C221D
:103EDC004FF0FF30054B1A6010BD054A054C121B04
:103EEC009342F4D20B60F7E7A4000020640A002090
:103EFC0000500020000400004FF0FF3070474FF4DA
:103F0C00005300204B607047012070470020704721
:103F1C0000207047FEE700001622024B4FF0FF30E6
:103F2C001A607047640A002001207047002210B507
:103F3C00074B1C68844202D15C688C4206D001326B
:103F4C00282A03F10803F4D1002010BD0120FCE75E
:103F5C005403002010B5084C084A237842F833006B
:103F6C0002EBC302516028220133B3FBF2F102FBD6
:103F7C001133237010BD00BF5003002054030020E8
:103F8C00012310B50C4603FA00F0FCF78DFD214619
:103F9C00FCF796FE0449FCF7DFFD0449FCF7D4FC62
:103FAC00FCF7DCFF10BD00BF000020403333F340B2
:103FBC0007B50B49FCF7D0FDFCF7AAFF08234FF41B
:103FCC007A7200930749032305F069F80828A8BF03
:103FDC0008200328B8BF0320C0B203B05DF804FB6F
:103FEC000000C84230F8FFFF10B50C46FFF7E0FFA9
:103FFC0001218140002005F048F8604310BD00000D
:10400C0030B501211F2087B005F08CF80424002165
:10401C001F2005F0E5F8962005F0BEF901211F20C0
:10402C0005F0DEF8013C962005F0B6F914F0FF041B
:10403C00EDD121461F2005F0D3F806224FF4E131D3
:10404C00474804F0ADFC4FF4FA6005F0A5F944487C
:10405C0004F02EFD4349424804F03CFD424A434DD6
:10406C00D2F8EC17D2F8E837D2F8F0274B4053408F
:10407C003F493B482B7004F013FD10222978384837
:10408C0004F091FD3B4B1022049314232B21CDE91A
:10409C00023205230594CDE90031374A0B23374909
:1040AC00374800F0B9FE044688B136492C4804F074
:1040BC00F7FC21460A222A4804F05EFD32492848C2
:1040CC0004F008FD4FF47A7005F066F9FAE7012167
:1040DC0041F2210341F60F520091294803F01EFED4
:1040EC00C022C121264803F0F4FE23490B20FFF720
:1040FC0047FF264C26492060194804F0D1FC0A22BF
:10410C002168174804F042FD2249154804F0E2FCEE
:10411C001B4801F08BF8044698B11F49104804F075
:10412C00BFFC0A2221460E4804F026FD0E4BD3F8A4
:10413C00E84705F02DF9604007B0BDE8304004F0C9
:10414C0095BF1649064804F0ABFC03220B49044802
:10415C0004F0C4FD1249024804F0BCFCE6E700BFC1
:10416C007C070020ECB0000800F0FF1F9404002036
:10417C0031B10008CDCCCC3F00007A4300F8654447
:10418C009405002060B1000882B100084C030020A7
:10419C00BDB10008D3B10008D7B1000804B20008C3
:1041AC0010B200082DE9F04F01218A4887B004F0C5
:1041BC0018F90128044640F009810146854804F0AD
:1041CC0025F92146834801F02BFEA0F11003EF2BBB
:1041DC00054605D97F4807B0BDE8F04F01F026B879
:1041EC0002467D497B4801F0CBFD0446794801F03D
:1041FC004FFB0746774801F09BFD0190754801F095
:10420C0015F8754B002C40F0E1801A4602AE03F114
:10421C00100C344610685168083203C462452646B7
:10422C00F7D1D3F804806D496D481C7BD3F800B0EE
:10423C00D3F8089093F80DA004F032FC10224146FC
:10424C00674804F0A3FC6749654804F029FC102278
:10425C005946634804F09AFC6349614804F020FC19
:10426C00102249465E4804F091FC04F007065F49B1
:10427C005B4804F015FC0A223146594804F091FCC5
:10428C005B49574804F00CFC0A226109544804F0BD
:10429C0088FC5849524804F003FC102251465048FF
:1042AC0004F07FFC54494E4804F0FAFB02223946D4
:1042BC004B4804F013FD5149494804F0F1FB02222C
:1042CC000199474804F00AFD4D49454804F0E8FBC4
:1042DC000A222946424804F04FFC36B94949404865
:1042EC0007B0BDE8F04F04F0F5BB49464046FFF778
:1042FC001DFE08B14449F2E74046FFF72BFE434B45
:10430C0038461968FFF770FE07464149344804F0F7
:10431C00C7FB0A223946324804F038FC3D49304884
:10432C0004F0D8FB384605F037F83B4B013E1B78C0
:10433C0024F007043443284A8DF814408DF81730C4
:10434C0002AC06AE234603CBB342106051601C4650
:10435C0002F10802F6D11F4802F055FE01211F2080
:10436C0004F03EFF00232A461B491A4803F0D4FFF1
:10437C00044648B129491A4804F092FB0A22214606
:10438C00174804F0F9FB25E705F002F80446114D37
:10439C0004F0FEFF031BB3F5FA6F01D320490DE0C7
:1043AC000021284604F01DF80128F1D1002109480C
:1043BC0004F02CF8074801F000FA1A49084804F0F8
:1043CC0089FB00211F2004F00BFF03E707B0BDE8B9
:1043DC00F08F00BF94050020950400202CB200083B
:1043EC007C07002037B200083EB2000845B2000836
:1043FC004BB200084DB2000854B200085AB2000883
:10440C0061B2000867B2000889B200084C030020B2
:10441C00AAB20008D3B1000894040020C2B200086C
:10442C0003B30008EDB2000813B54820FEF7F9FC01
:10443C00C223044600934FF0FF32C323C42100F083
:10444C0009F82146024802B0BDE8104000F06EBEEB
:10445C00940500202DE9F843154E4FF0000C05464D
:10446C00374604469E46894690460FCF45F804CB06
:10447C000FC597E80700089B85E8070004F1300793
:10448C0006F11C05C4F828E0E362C4E908980FCDD6
:10449C000FC72B6830203B60C4F844C0FEF7C1FC4A
:1044AC00054600F095FC20462560BDE8F88300BF6A
:1044BC0004AB000810B50446006803685B6C9847B1
:1044CC002068216A036882689B6898472068216A83
:1044DC0003680269DB689847004B10BD0801002097
:1044EC00006803689B6C18472DE9F74F9B460C9BA3
:1044FC00057C0193437CDDF83490ED0805EBD30586
:10450C004D440446284688469246FEF78CFC0646E7
:10451C002846FEF788FC0746207C5FFA88F30828BB
:10452C0094BF304630465FFA8AF193BF0B4343EA9F
:10453C001A2300F8023B00F8013B638988BF7170B5
:10454C0043454A4631D1594605F097FD206803682A
:10455C005B6B98472068216A0368C268DB689847E0
:10456C0020682A4603683146D3F838B03B46D84712
:10457C002068216A03680269DB6898472068036831
:10458C00DB6B98472389434506D1217C4A46019829
:10459C0007EBD10105F071FD3046FEF746FC3846BD
:1045AC0003B0BDE8F04FFEF740BCA18905F089FCD3
:1045BC00CCE72DE9F84FDDF8308004460E46154661
:1045CC0099469DF834B002EB080A13B9837C0AEBC8
:1045DC00D30A5046FEF727FC07462A46314605F01B
:1045EC004CFD7819B9F1000F55D042460A9905F0E7
:1045FC0044FDBBF1000F07D0E26A2068013203686A
:10460C0050D13221DB6998475046FEF70CFC064628
:10461C00206803685B6B98472068216A0368C2684E
:10462C00DB68984720685246036839469B6B9C466A
:10463C003346E0472068216A03680269DB689847C3
:10464C0020680368DB6B9847BBF1000F07D0E26A68
:10465C0020680132036843D10121DB699847636903
:10466C00002B5CD0B8F1000F5BD0E27CB05C9847BB
:10467C008246B9F1000F07D1A37C424605EBD3016A
:10468C000B98314405F0F9FC3846FEF7CEFB30466A
:10469C00FEF7CBFB21E0A27CA18908EBD20205F04E
:1046AC0010FCA6E75B6A984706462068E16A036837
:1046BC001B6998470028A7D0206803685B6D984752
:1046CC00206803685B6A9847E369801B9842ECD3C7
:1046DC003846FEF7AAFB6FF4307A5046BDE8F88FE7
:1046EC0001211B6A9847206803685B6A98478246D9
:1046FC002068E16A03681B6998470028AFD02068DE
:10470C0003685B6D9847206803685B6A9847E369A8
:10471C00A0EB0A009842EBD36FF4307AA9E79A46E3
:10472C00A7E7C246A5E7F0B51E46037905460F4636
:10473C0087B03BB9CDE900620A460189FFF7D4FE88
:10474C0007B0F0BD04AB194690F9114090F811C0B8
:10475C00002CB8BF0734E410013C64B2E000002C1C
:10476C0012DA2C7CE408601E40B2B0F1FF3F15D188
:10477C000123CDE90223002328460196009304EB84
:10478C00DC02FFF716FFDBE7B5F808E0013C4EFA58
:10479C0000FE03F801EB64B20838E0E74FEAC00E04
:1047AC0027FA0EFE03F801EB0138DDE70023F0B524
:1047BC0089B08DF81730037904460A465BB901219C
:1047CC0001910DF1170100910189FFF78DFE9DF804
:1047DC00170009B0F0BD90F91130467C06A80146CF
:1047EC00002BB8BF0733DB10013B5BB2DD00002BA5
:1047FC0013DA257CED086B1E5BB25F1C15D101230F
:10480C00CDE902330DF117030193002320460093E9
:10481C0005EBD602FFF7CDFED9E72789013B2F41E7
:10482C0000F8017B5BB2083DE1E7DF0022FA07F7F5
:10483C0000F8017B013BDFE7F0B516461A46037919
:10484C0005460F4687B043B9CDE900320A463346D8
:10485C004189FFF749FE07B0F0BD04AB194690F94A
:10486C00114090F811C0002CB8BF0734E410013C83
:10487C0064B2E000002C12DA2C7CE408601E40B21A
:10488C00B0F1FF3F15D10123CDE9022300222846C8
:10489C00CDE9006204EBDC02FFF78BFEDBE7B5F839
:1048AC000AE0013C4EFA00FE03F801EB64B2083852
:1048BC00E0E74FEAC00E27FA0EFE03F801EB0138D1
:1048CC00DDE7F0B5037989B004460D468DF8172065
:1048DC0053B90122CDE900320A460DF11703418983
:1048EC00FFF702FE09B0F0BD90F91130467C06A826
:1048FC000146002BB8BF0733DB10013B5BB2DA007B
:10490C00002B13DA227CD208531E5BB25F1C15D12C
:10491C000020012301900DF117000090CDE9023326
:10492C00204602EBD602FFF744FEDBE76789013B2A
:10493C00174100F8017B5BB2083AE1E7DF0025FA8A
:10494C0007F700F8017B013BDFE72DE9F0479DF805
:10495C0020A01C4643EA0A03072B05460E46904648
:10496C009DF828709DF82C9042D8544540D3FFF701
:10497C001DFFFF22631CDBB2CAF1080A02FA03F323
:10498C0042FA0AF21343DB4380EA0802DBB2134219
:10499C0005D1B9F1000F02D10020BDE8F08720EA63
:1049AC00030403EA08031C43E4B2224631462846BA
:1049BC00FFF787FF286803689B6A98474FF47A7360
:1049CC0081469DF8248003FB08F8286803689B6ADD
:1049DC009847A0EB0903434502D36FF00F00DCE7C7
:1049EC0031462846FFF7E2FE60400742EDD1D3E79F
:1049FC006FF00A00D1E77FB59DF82460044603965A
:104A0C00089E9DF82850CDE9013600230093FFF74E
:104A1C00D0FD38B935B1A36923B1204604B0BDE847
:104A2C007040184704B070BDF0B587B005AD0F46A7
:104A3C00294690F9114090F811C0002CB8BF0734EA
:104A4C00E410013C64B2E600002C0DDA9DF8344011
:104A5C0002949DF83040CDE9003413464FEADC0255
:104A6C00FFF7C9FF07B0F0BD47FA06FE013C05F899
:104A7C0001EB64B2083EE7E77FB59DF8246004467D
:104A8C000396089E9DF8285002960026CDE9003624
:104A9C000123FFF78EFD38B935B1A36923B1204648
:104AAC0004B0BDE87040184704B070BDF0B587B0D5
:104ABC0005AD0F46294690F9114090F811C0002C15
:104ACC00B8BF0734E410013C64B2E600002C0DDAE8
:104ADC009DF8344002949DF83040CDE900341346E3
:104AEC004FEADC02FFF7C8FF07B0F0BD47FA06FE3D
:104AFC00013C05F801EB64B2083EE7E7002370B512
:104B0C0086B00446427C8DF8133090F9113005A81C
:104B1C000146002BB8BF0733DB10013B5BB2DD0055
:104B2C00002B16DA0123CDE902330DF113030193A7
:104B3C00002320460093D208FFF73BFD054628B919
:104B4C0063691BB19DF813009847E080284606B0B6
:104B5C0070BDE689013B2E4100F8016B5BB2083D4C
:104B6C00DEE70B4670B5054601F11404303053F8FE
:104B7C00046BA34240F8046BF9D16A640E1F01F177
:104B8C001004286856F8041F036882689B689847CD
:104B9C00A642F6D170BD00004FF0FF3310B586B0C1
:104BAC00CDE901120C49CDE9033305930B68DB0702
:104BBC000BD40468094BE2682469C3E90122C3E9F8
:104BCC000742C3E90D2401230B60044A01A9FFF736
:104BDC00C8FF06B010BD00BF5C070020A800002075
:104BEC00406C18B970478B4204D018300378002BF6
:104BFC00F9D118467047F8B50546FFF7F1FF88B1B3
:104C0C00041D05F12C0605F1400756F8041F002978
:104C1C0004DB286822680368DB689847BE4204F10D
:104C2C000404F2D1F8BD0000064B074A1B68074884
:104C3C00B3FBF2F34B4310B544684268121B93422A
:104C4C00FBDC10BD2400002040420F00001000E0EF
:104C5C00CBB2222B09D80F4A01F4E06052F8233072
:104C6C001843431C18BF0846704701F0C002C02A05
:104C7C000CD1C92B0AD8084B01F03F0253F8222063
:104C8C00044B01F4E06053F82230E9E74FF0FF30B9
:104C9C00704700BFA8AF000880AF0008704790F8BD
:104CAC002C2008B512B103681B6B9847BDE808406F
:104CBC00FEF794B90021006A04F026BC006A04F0E7
:104CCC005CBCF8B507460C465D1E8E18B44200D18C
:104CDC00F8BD002214F8011B386A04F050FC05F8EA
:104CEC00010FF3E704F0E5B94B1C084603D0002193
:104CFC00C0B204F0E1B87047084611461A46431C8E
:104D0C0002D0C0B204F058B87047006A04F034BC4A
:104D1C00D0E90912006A04F00DBC084611461A4687
:104D2C00431C01D004F0D4BA0020704704F032BB0D
:104D3C0004F02EBB084604F02FBB4B1C084601D0D8
:104D4C0004F0FCB8704700001FB5084611461A461F
:104D5C00431C13D00024CDE90044CDE9024421B119
:104D6C00074B00910393074B0293694604F016F925
:104D7C00029B1BB1694603220846984704B010BD3C
:104D8C0069300008493000084B1C084601D004F07B
:104D9C0061BA002070470846431C114601D004F04C
:104DAC001FBA70470846431C114601D004F0BAB92B
:104DBC00704710B504463021FEF739F8204610BD77
:104DCC0090F82C2012B103681B6C18477047000038
:104DDC000423032230B585B00125CDE9013200232F
:104DEC00044619462A46009503F03EFC074B204624
:104DFC002360074B25852362064B84F82C50636295
:104E0C00002384F82A3005B030BD00BF38B3000849
:104E1C00AC08002080841E00F0B585B06D460446B9
:104E2C008C4617461E46144B0FCB85E80F009DF899
:104E3C00283029468DF809309DF82C3020468DF805
:104E4C000A309DF93030CDF800C08DF80B30BDF82C
:104E5C0034300197ADF80C300E9B8DF80860C4F817
:104E6C0050319DF83C3084F854312368D3F8F0303D
:104E7C00984705B0F0BD00BF34AB0008F0B506464E
:104E8C008E4694461F4687B0114D01AC0FCD0FC412
:104E9C002B68304623600C9BCDF804E004939DF9FD
:104EAC003430CDF808C08DF81430BDF83830039785
:104EBC00ADF816300F9B01A9C6F850319DF8403063
:104ECC0086F854313368D3F8F830984707B0F0BD02
:104EDC0044AB0008F0B504460F46164685B00C4AA4
:104EEC0001AD07CA85E807008DF80C300A9B2946EE
:104EFC00C4F850319DF82C30204684F85431236886
:104F0C000197D3F800310296984705B0F0BD00BF69
:104F1C0058AB000813B58DF805309DF81030009192
:104F2C008DF806309DF9143069468DF80730069BD4
:104F3C008DF80420C0F850319DF81C3080F85431A5
:104F4C000368D3F80831984702B010BD4AB116294E
:104F5C000B466FF00800A8BF16238342B8BF034668
:104F6C0013700931C9B21F298CBF6FF00C000020DF
:104F7C007047000010B5012986B006D002292BD04D
:104F8C00C9B16FF0130006B010BD00220368059282
:104F9C00194A4FF0080C04920A224FF0120ECDE978
:104FAC00022C0722CDE9002E1449D3F8F440144A00
:104FBC000923A047E7E7104A0368102403920A224A
:104FCC00CDE901240F4A04910092D3F8FC400E4A1B
:104FDC000E4B0A49A047D6E7002302680393064B01
:104FEC000A2102930123CDE900310449D2F80C4186
:104FFC000622A047C7E700BFCDCCCC3F0000D94369
:10500C000000FA4233331C439A9999400000A040A7
:10501C00704770B58B890D468A7A497A044601F03F
:10502C00DDFA00BB23682046D3F8E830297A98478C
:10503C00C8B923682046D3F8E4306968984790B91A
:10504C0023682046DB6B2968984760B9012120460C
:10505C0001F004F938B92368204695F90B105B6D03
:10506C00BDE87040184770BD37B54B8A0C460093AD
:10507C00CB688A684968054601F004FB98B92B682F
:10508C002846DB6B2168984768B90121284601F056
:10509C00E5F840B928462B6894F910105B6D03B005
:1050AC00BDE83040184703B030BD70B50C464968B8
:1050BC00054601F057FB90B92B682846DB6B21683D
:1050CC00984760B90121284601F0C8F838B92B6817
:1050DC00284694F908105B6DBDE87040184770BD08
:1050EC0070B58B790D464A790979044601F04EFB6F
:1050FC0090B923682046DB6B2968984760B9012179
:10510C00204601F0ABF838B92368204695F9071012
:10511C005B6DBDE87040184770BD10B504464FF488
:10512C00E471FDF784FE204610BD000010B5044666
:10513C0000F068FC034B20462360034BC4F8583145
:10514C0010BD00BFA8B3000898B3000870B50C469A
:10515C000546144920461646FBF7B0FEF0B1204632
:10516C001149FBF7A1FEC8B12EB121462846BDE876
:10517C00704002F0EFBFD5F860112046FBF7E2FB60
:10518C000A4920F00040FBF799FE0028EDD021469B
:10519C00284600F07AFE0028E7D070BD6FF00B00B7
:1051AC00FBE700BF00001643000070440000A04164
:1051BC000022FFF7CBBF0000036873B59B6D16464A
:1051CC00002205460C46984790B99EB10B4B04F152
:1051DC00090203EB420113F8123091F9014003F07C
:1051EC000F021B09002128460091214602F05CFFAA
:1051FC0002B070BD04220723F4E700BFB8B4000866
:10520C000122FFF7D9BF000030B585B005466C46CA
:10521C00054B0FCB84E80F002B6821462846D3F8AA
:10522C00A030984705B030BD64AB0008002213B520
:10523C0003680092DC6940F2722202236FF07F4116
:10524C00A04702B010BD000030B585B005466C46D5
:10525C00054B0FCB84E80F002B6821462846D3F86A
:10526C009430984705B030BD64AB000882B02DE98E
:10527C00F041012906A880E80C000B9C9DF82660E3
:10528C009DF8277009D0022975D000294BD06FF0FA
:10529C001300BDE8F04102B0704742F210709DF867
:1052AC00188000FA08F0FBF7FFFB514905460798F8
:1052BC00FBF752FC01462846FBF702FDFBF74EFEBE
:1052CC00A8F10503DBB2012B9DF8283005468BBFF6
:1052DC0008210021112019200BBB4FEA8803002E56
:1052EC000CBF1426002604EB4707C8EB470201EB62
:1052FC008201DBB2314409B25A1E0029A8BF5218F0
:10530C0092FBF3F3BDF824209DF820109BB20832D9
:10531C0001FB032300EB830068438008B9E7A8F185
:10532C0002039B00DBE7F800FBF7C2FB05463046A7
:10533C00FBF7BEFB01462846FBF706FB0546BDF80E
:10534C002400FBF7B5FB01462846FBF7FDFA0546A2
:10535C00E000FBF7A9FB01462846FBF7F5FA2549C7
:10536C0004460698FBF7ACFC01462046FBF7A8FC6C
:10537C00FBF7F4FD8DE79DF81930032B34D8DFE8EB
:10538C0003F002282D300623052263430433B3FBBC
:10539C00F2F39CB23022B4FBF2F302FB134403EBA6
:1053AC00830000EB80004000A4B280B214B1023440
:1053BC00204480B29DF82430C3EBC30203EBC2033C
:1053CC0000EB43000C4B80B25843FBF76DFB0B49D1
:1053DC00CCE704EB4404C4F34F04DBE76400A4B251
:1053EC00D8E704EB4404FAE76FF0090051E700BF7B
:1053FC000000204100007A4400127A001D24F4437E
:10540C0008B50846FBF750FB0249FBF759FCFBF7C4
:10541C00A5FD08BD00007A41036889B2D3F8EC30D1
:10542C0018470368D3F8DC301847D0F86801704788
:10543C0000F00E03062B0BD0082B0CD00A2B0CD033
:10544C000138C0B2FD288CBF6FF0010000207047FE
:10545C006FF430707047024870470248704700BFC5
:10546C003EFDFFFF3DFDFFFF704700002DE9F042C0
:10547C008AB004460F4601F0EBFE00230DF11C0927
:10548C00012805AE0546C9E9013307930593B3809E
:10549C003DD194F86D31042B35D80433DBB28DF843
:1054AC00243094F86C318DF81C30D4F87431089396
:1054BC00B4F87231ADF8143094F86F31003B18BF6A
:1054CC0001238DF8173094F87031591E4B424B4123
:1054DC008DF8163094F86E31003B18BF01238DF80F
:1054EC001830099B039796E8030000930190ADF8E0
:1054FC0008102168204699E80C008E6F2946B047A9
:10550C000AB0BDE8F082072B08BF0823C7E730BB01
:10551C00D4F87C01FBF7C8FA01462148FBF7D0FB15
:10552C000790D4F88001FBF7BFFA94F88731089004
:10553C0013F0FB0F11D0022B03D09A1F534253418F
:10554C005B00B4F88C218DF81730ADF8142094F86A
:10555C0088218DF816200025C3E70123F1E70328E5
:10556C000ED1B4F8A83102255BBAADF81C3094F812
:10557C00AF318DF81E3094F8AA318DF81430B0E7A5
:10558C00022809D1D4F87C01FBF78EFA01460448B5
:10559C00FBF796FB0790DEE76FF01300B0E700BF58
:1055AC0000007A4910B50C4659B101F051FE0128A2
:1055BC0002D0032803D038B92070002010BD02207F
:1055CC00FAE76FF00200F9E76FF01300F6E708B5A1
:1055DC000221D0F86801FFF70EFB4FF0FF3008BD39
:1055EC0037B50D46044690F86411D0F86801FFF702
:1055FC0002FB5DB90123CDE900330023D1211A460A
:10560C00D4F86801FFF752FA03B030BD29462046A2
:10561C0001F000FE0028EDD0F6E7002307B58AB2B2
:10562C001146009301F0C8FD03B05DF804FB1FB5F3
:10563C000023ADF80C300123CDE9003312210223F5
:10564C0003AAD0F86801FFF7EFF9BDF80C0040BAD7
:10565C0080B205B05DF804FB2DE9F0410024FF2772
:10566C000226054686B0CDE90274CDE900462346F4
:10567C00224640F6E201D0F86801FFF766F9CDE961
:10568C000274CDE900462346224640F6E501D5F8E2
:10569C006801FFF75AF96FF07F41284601F0D1FC01
:1056AC00D5F868310A211868274603682646DB6955
:1056BC009847012340F6190128460DF117028DF881
:1056CC00176001F042FD9DF8170000F00100A040AA
:1056DC0001343843082CC7B2EBD102244FF0FF0839
:1056EC002B6828461B699847CDE90148039600961C
:1056FC000023012240F6E201D5F86801FFF725F9F5
:10570C00CDE90286CDE900640023012240F6E501D3
:10571C00D5F86801FFF719F9384606B0BDE8F081F5
:10572C0090F8381038B50229044605D0032911D059
:10573C006FF01805284638BDD0F86801FFF75BFA02
:10574C002046D4F8A41101F07CFC0546002384F813
:10575C003830EFE790F86411D0F86801FFF74BFA96
:10576C000021204601F057FC05460028E2D1D4F870
:10577C0068311868D96A0268126990470028E5D028
:10578C00D4F86831186803685B6D9847EFE7D0F878
:10579C00683110B50446186803681B699847C1B294
:1057AC002046BDE8104002F03EBE10B504464FF452
:1057BC00E471FDF73CFB204610BD036810B544F2C4
:1057CC00FF31D3F8EC300446984728B923682046BB
:1057DC00BDE810401B69184710BD000010B5044609
:1057EC0001F036FD01280ED123682046D3F8843011
:1057FC009847C3050AD410F0800F14BF6FF00E0049
:10580C004FF0FF3010BD6FF01300FBE70048F9E7D5
:10581C0042FDFFFFF7B505460E4601F019FD0128C4
:10582C0033D12B6828461B699847044650BB02218C
:10583C00D5F86801FFF7DFF9B168284602F0BEFD24
:10584C00F1680746284602F0B9FD2346009482B25F
:10585C00B9B2284601F0B0FC044698B92B6844F262
:10586C00FF312846D3F8EC309847044650B973689A
:10587C0028460193F3780093B3787278317801F06D
:10588C00F7FB0446204603B0F0BD6FF01304F9E7B4
:10589C0010B5044601F0DCFC012812D1204601F0C1
:1058AC000FFE10F4004FC0F3072018BFA0F5807056
:1058BC00FAF778FD0022044BFAF7DEFDFAF7EEFF5B
:1058CC0010BD0248FCE700BF0000D03F0000A0C1A3
:1058DC002DE9F3411D46036804461B690F46164625
:1058EC009847002846D16DB92368002EDB6F14BF92
:1058FC003146FF21204698474FF47A7300EB800025
:10590C00B0FBF3F52846FBF7CFF82D49FBF724F94C
:10591C002C49FBF7D5F9FBF721FB002223680092F9
:10592C000146D3F81C8040F2722202232046C04765
:10593C0000BBD4F86831186803685B6A98478046E6
:10594C00D4F868311868596A026812699047A0B196
:10595C000025236820461B69984718B16FF43073F3
:10596C00984207D12368D5B123682046DB6A984753
:10597C006FF0050002B0BDE8F081D4F8683118680A
:10598C0003685B6D9847D4F86831186803685B6AE4
:10599C009847A0EB08008542D2D20125D9E7D3F86D
:1059AC00843020469847636B1842DDD13246394625
:1059BC00204623681B6B02B0BDE8F041184700BFBE
:1059CC0000007A4400007A41036810B5D3F8943093
:1059DC000446984730B110BDD4F868311868036894
:1059EC005B6D9847D4F868311868596A0268126977
:1059FC0090470028F0D023682046BDE81040D3F82B
:105A0C009830184738B504460D4602F0B3FC344ABA
:105A1C00344BC4F850210022C4F86021C4F874211E
:105A2C00C4F8902140F2016203200121236000237D
:105A3C00A4F8A8212C4AC4E95F33126984F84D31CB
:105A4C0084F85431C4F8583184F85C3184F864011A
:105A5C00C4F86C3184F87031A4F8723184F8781180
:105A6C00C4F88431A4F8883184F88A31A4F88C31D4
:105A7C00C4F89431A4F8983184F89A31C4F89C3164
:105A8C0084F8A031C4F8A43184F8AA01C4F8AB217D
:105A9C0084F8AF31C4E96C33C4E96F33A4F8B8317E
:105AAC00C4F8C431114B02226360FF23A3600423AA
:105ABC002161C4E90523082110232020C4E9071320
:105ACC004023C4F86851C4E9090380254FF480735E
